:020000040001F9
:10800000803A0020158101002F810100318101009B
:108010000000000000000000000000000000000060
:10802000000000000000000000000000338101009B
:1080300000000000000000003581010037810100D0
:108040003981010039810100A186010039810100D7
:1080500039810100000000008D820100398101009A
:108060003981010039810100398101003981010024
:108070003981010039810100398101003981010014
:1080800039810100D5850100398101003981010064
:10809000FD8501000586010031860100398101005E
:1080A000398101003981010000000000000000005A
:1080B00000000000000000000000000000000000C0
:1080C0000348854600F0A4F800480047DDCB0100D6
:1080D000803A0020401E00BF00BF00BF00BF00BFAD
:1080E00000BF00BF00BF00BF00BF00BF00BFF1D195
:1080F00070470000401E00BF00BF00BF00BF00BFB0
:1081000000BF00BF00BF00BF00BF00BF00BFF1D174
:10811000704700000321094802680A4302600848CA
:1081200002680A4302600748804707480047FEE7A5
:10813000FEE7FEE7FEE7FEE7FEE70000240500405D
:108140005405004069860100C180010030B50B462E
:10815000014600202022012409E00D46D5409D4221
:1081600005D31D469540491B2546954040191546A7
:10817000521E002DF1DC30BD70B5002425460028CC
:1081800001DA01244042002901DA01254942FFF7C2
:10819000DDFFAC4200D04042002C00D0494270BD0F
:1081A00003460B439B0703D009E008C9121F08C010
:1081B000042AFAD203E00B780370401C491C521EBB
:1081C000F9D27047D2B201E00270401C491EFBD2C6
:1081D00070470022F6E710B513460A4604461946D2
:1081E000FFF7F0FF204610BD421C0178401C00291B
:1081F000FBD1801A704730B504460020034600E0EA
:108200005B1C934203D2E05CCD5C401BF8D030BDD8
:10821000064C0125064E05E0E36807CC2B430C3CD9
:1082200098471034B442F7D3FFF74EFFE0FF010048
:108230000000020070B58C180578401C6B075B0FBE
:1082400001D10378401C2A1106D10278401C03E0BA
:1082500006780E70401C491C5B1EF9D12B0705D413
:108260000023521E0DD40B70491CFAE70378401C02
:10827000CB1A921C03E01D780D70491C5B1C521E2A
:10828000F9D5A142D8D3002070BD0000F0B587B069
:10829000002600200690FF200130059001250024D3
:1082A00017E0059805F038F800280CD00120A04010
:1082B000554949680140002905D0059805F024F882
:1082C0003046284306466D000598001D80B2059093
:1082D000641C042CE5D3FF207D3005F01DF8002838
:1082E0000AD0FF207D3005F00FF80120C0070643BB
:1082F00000BF4648006906903007000F00282AD0CA
:108300000125002425E02846304000281FD000BF6A
:108310003F48512109014018A10040581F2109027E
:108320000840000A049000BF394851210901401853
:10833000A1004058032109040840000C0390204686
:1083400002F014F8074603990498B84700BF6D007F
:10835000641C042CD7D3F00FC007002852D000248F
:108360004EE0204605F0BCFD0490C02104988843EF
:10837000074604980840801103900120B840054644
:10838000384605F0C1FD002839D0384602F032F8F1
:10839000019001F0EBFF0290029800282ED000BF60
:1083A00005200007072109024018B90040580321A1
:1083B00009040840000C019006982840002802D0CB
:1083C0000198022806D006982840002815D1019867
:1083D000032812D1039803280BD10198022801D158
:1083E000032000E0022000903846009904F053FF7B
:1083F00000BF3846029A0399904700BF00BF641C33
:10840000062CAED307B0F0BD00630040000500505D
:1084100000600040C206D20E01219140014A116065
:108420007047000080E200E0C206D20E01219140B8
:10843000014A11607047000000E100E0C206D20E60
:1084400001219140014A11607047000000E200E004
:1084500010B5002819DA1A4A03071B0F083B9B08BE
:108460009B00D2588307DC0EFF23A3409A438B075F
:108470001B0E8407E40EA3401A43114B0407240F7C
:10848000083CA408A4001A5118E00E4A03231B025A
:10849000D21883089B00D2588307DC0EFF23A34029
:1084A0009A438B071B0E8407E40EA3401A43054B27
:1084B000032424021B198408A4001A5110BD0000D3
:1084C0001CED00E000E100E010B5002819DA1A4ABE
:1084D00003071B0F083B9B089B00D2588307DC0E49
:1084E000FF23A3409A438B071B0E8407E40EA3408F
:1084F0001A43114B0407240F083CA408A4001A5186
:1085000018E00E4A03231B02D21883089B00D2589E
:108510008307DC0EFF23A3409A438B071B0E8407BF
:10852000E40EA3401A43054B032424021B198408BC
:10853000A4001A5110BD00001CED00E000E100E0B5
:1085400010B5002819DA1A4A03071B0F083B9B08CD
:108550009B00D2588307DC0EFF23A3409A438B076E
:108560001B0E8407E40EA3401A43114B0407240F8B
:10857000083CA408A4001A5118E00E4A03231B0269
:10858000D21883089B00D2588307DC0EFF23A34038
:108590009A438B071B0E8407E40EA3401A43054B36
:1085A000032424021B198408A4001A5110BD0000E2
:1085B0001CED00E000E100E0BFF34F8F03480449E9
:1085C000C860BFF34F8F00BFFEE700000400FA054C
:1085D00000ED00E010B500200749086000210648C2
:1085E00041608160C16000200349403908604860F3
:1085F00007F0DEF810BD00004011014010B506F094
:1086000087FF10BD10B50848007801214840064991
:10861000087006480068002804D00846007803491E
:108620000968884710BD0000AC210020B02100205F
:1086300070B50C480068002810D00A4800688047D0
:10864000044600BF2546002D06D000BF002211467B
:10865000284600F0B5F900BF00BF01E004F0C0F803
:1086600070BD00003822002010B504F07FF900280A
:1086700005D0074807494860C8130749886104F0D6
:1086800059F9002802D001200449886010BD00007B
:10869000DFFF07C000050040006C004000060040FE
:1086A0001CB524488068002818D02348406804215D
:1086B0000840002812D000201E4988601F488069A9
:1086C000C0B21F4908800421684601701C48017827
:1086D000684601711B490968884700BF1548C06991
:1086E00000280BD01448406880210840002805D09D
:1086F00000201049C861032005F09EF90D48406A2A
:10870000002816D00C484068012149020840002882
:108710000FD0002007494862084880380468046088
:10872000022069460870019468460649096888472E
:1087300000BF1CBD00210040002300400025004078
:10874000E2210020E821002030B47446641E257820
:10875000641CAB4204D3635D5B00E31830BC184774
:108760001D46F8E702E008C8121F08C1002AFAD126
:1087700070477047002001E001C1121F002AFBD1A1
:10878000704710B500F01AF810BD000007480078D7
:10879000022802D001200649886006480078064970
:1087A000C86102200149087070470000EC210020D8
:1087B00000200040E0210020002500401CB50120E1
:1087C0000549C86005490870032069460870684675
:1087D0000349096888471CBD00200040EC210020A7
:1087E000E821002000200549087001200449C860E4
:1087F000486000200349086070470000EC21002019
:108800000020004000250040F8B504460F461546FC
:108810000026002028702078002809D02A463946F2
:10882000204604F074FA0646002E01D03046F8BD0A
:10883000A078002808D02946384600F044FC0646B7
:10884000002E01D03046F2E7E07800280ED0022159
:108850002A78501C2870B95401212A78501C28709D
:10886000B954E1782A78501C2870B95460680028FF
:108870000BD00020616808562A46394607F032F8C6
:108880000646002E01D03046D1E7208900280CDDB5
:108890003B460622022120460830009507F013FAD5
:1088A0000646002E01D03046C1E7208A00280CDDA4
:1088B0003B460722032120461030009507F003FABB
:1088C0000646002E01D03046B1E7208B00280CDD93
:1088D0003B461522142120461830009507F0F3F985
:1088E0000646002E01D03046A1E7206A002809D0B4
:1088F0002A463946206A01F0E7FF0646002E01D0DD
:10890000304694E7606A002809D02A463946606AF2
:1089100004F0C8F90646002E01D0304687E72C2027
:10892000005D002809DD2A463946204606F01CFA7B
:108930000646002E01D0304679E7304677E70146FB
:10894000C87804221040002801D107207047002079
:10895000FCE7000030B595B0302109A8FFF739FCDD
:10896000012108A80171002181710621C171002136
:10897000684681860E91202101A8FFF72AFC01217B
:10898000684601710173FF20FF30049000200590BC
:108990000A4B01AA0146009009A800F025FC0446F4
:1089A00000BF2546002D05D000BF002211462846F5
:1089B00000F006F800BF15B030BD00003DD3010047
:1089C000FFF7FAFDF8B504460D461646034807685A
:1089D000324629462046B847F8BD0000A82D0020A1
:1089E000F8B505460C462778A068000105490E58E1
:1089F000608800902A463946204608302369B047EF
:108A0000F8BD000070320020F8B505460E46174646
:108A10000520009000BF1449087814490978814264
:108A200001D1012100E0002100291BD10E4804786A
:108A3000007804F0B7F90C4908700D4800886043CD
:108A40000C49096840182860E0000B490968401883
:108A500080883080E00008490968085838600020A4
:108A6000009000BF0098F8BD302200203122002085
:108A7000322200202C22002028220020F7B584B0CA
:108A80000C463D480088844272DC3C4D0020039037
:108A900002F036F802900298012814D003A836DFBD
:108AA0000746022F01D172B60CE000BF0197019F6B
:108AB000002F06D000BF002211460198FFF780FF6B
:108AC00000BF00BF00BF00BF2D4807782D480078C9
:108AD00004F068F9B84201D1012000E0002000282C
:108AE00006D128480578007804F05CF9254908701B
:108AF0000298012814D062B66846007B37DF07462B
:108B0000022F0CD000BF0197019F002F06D000BF9D
:108B1000002211460198FFF753FF00BF00BF00BFBE
:108B20001648854222D0E900174A0698126850502C
:108B30000498002811D0002C0FDD0F4909886943E3
:108B4000124A1268881822460499FFF729FBE800A8
:108B50000D4909684018848005E00020E9000A4AB0
:108B6000126889188880002601E001E0042600E0F0
:108B70000926304607B0F0BD32220020FFFF00007A
:108B80003022002031220020282200202C22002028
:108B90000EB504E068468188009A029890476A46BC
:108BA00001A902A8FFF730FF0028F3D00EBD000096
:108BB00030B50346481CC004040C10468507AD0FB1
:108BC000002D01D1012500E00025002D01D1072055
:108BD00030BD084802601019074D28600020074D7D
:108BE0002870074D2870074803800748018000203F
:108BF000EEE70000282200202C2200203122002055
:108C000030220020322200203422002070B503469A
:108C10000C4619480068002801D1082070BD002AC0
:108C200001D10720FAE7002B01D10720F6E7002148
:108C30001CE024204843104D2D68285C002814D1E6
:108C40000125242048430C4E3668355424204843DF
:108C5000094D2D684019447024204843064D2D6865
:108C60004019826119600020D8E7491C0348007848
:108C70008142DEDB0420D1E700220020FC2100201D
:108C8000F8B504460D46264600BF082D01D1012047
:108C900000E000200746002F06D100BF0022114649
:108CA0001046FFF78DFE00BF00BF3168706888472F
:108CB000F8BD00007CB504460D4600940195034ABA
:108CC00008216846FFF7DAFE7CBD0000818C0100B8
:108CD000FFB581B00E4617461C4620468107890F16
:108CE000002901D1012100E00021002902D1072043
:108CF00005B0F0BD002C01D10720F9E705F018FF01
:108D000026490A980860264806702648046000250F
:108D10000CE0002124206843224A126811542420C8
:108D20006843204A1268801801756D1CB542F0DB5B
:108D300024207043041903201B4908701B48046059
:108D4000183400250CE0E900184A12688818002140
:108D50000170417087704460182179430C196D1CB3
:108D6000032DF0DB0020C0431149086000201149A9
:108D70000870114908701420FFF74CFB03211420E0
:108D8000FFF7DEFB1420FFF74FFB019805F0A6FE6E
:108D900005F09EFE094908600020A9E72022002076
:108DA000FC210020002200200422002008220020B4
:108DB0000C2200201C2200201D2200201022002056
:108DC000FEB504460D46164616480068002801D137
:108DD0000820FEBD14480078844201D2052D01D23E
:108DE0000720F6E7242060430E490968085C012843
:108DF00001D00820EDE7242060430A4909684018A3
:108E00004078012801D1284600E00020074606F0FE
:108E1000A1FE3B462A4621460096019006F07EFCC4
:108E2000D7E7000000220020FC21002070B5044696
:108E30000D480068002801D1082070BD0B4800785B
:108E4000844201D30720F8E72420604306490968DB
:108E5000085C012801D00820EFE706F07BFE0546FC
:108E6000214606F085FCE8E700220020FC210020D6
:108E700010B50446FF2C04DA042004F0DDFD0020C8
:108E800010BD042004F0D8FD0249086904F028F957
:108E90000020F5E70025004001460020074A12881F
:108EA000074B9A4201D1052006E0044A12780A7065
:108EB0000022D243014B1A8070470000E2210020BB
:108EC000FFFF0000FFB583B0044616460020584956
:108ED0000870584806600020C043574908806078F1
:108EE00001218140554A916000BF6078032112053D
:108EF00007231B02D2188300D15000BF20788A00BC
:108F000005231B0707273F02DB198700DA5100BF43
:108F100060784B49C86020784861A06848626079F1
:108F2000002804D00E2046494031C86203E00020EA
:108F300043494031C8622079022844D104F020F925
:108F4000002807D104F0F4F80546002D02D0284689
:108F500007B0F0BD3B4800680290A07802A904F079
:108F600019F90546002D01D02846F1E70020C0433D
:108F700033490861A078886031484030C06A0121D7
:108F800008432F494031C8622E48001D00680190F7
:108F9000E0782D4A01A904F019F80546002D01D00A
:108FA0002846D5E7E078012103F0B8FFE07804F027
:108FB00087F8002803D0002004F03EFD02E00120E5
:108FC00004F03AFD0EE02079012806D1204606F093
:108FD00021FD01201649087004E006F0FBFC012089
:108FE000134908700C980088002808D117480178A8
:108FF0000C98018015480078401C14490870002026
:10900000C04313498860A1208000486002200121EC
:109010008140104A116000BF0699FFF719FA02203B
:10902000012181400C4A116000BF002090E7000040
:10903000EC210020E8210020E22100200005005062
:1090400000250040ACFE010025C50100E421002000
:109050000023004080E200E000E100E070B504463B
:10906000002506480078012801D0042504E00448C2
:109070000470022004F0E0FC284670BDEC210020C2
:10908000E0210020F8B505460E460027002400BF69
:1090900008E0A520FFF7E2FF0746042F01D1FFF704
:1090A0008BFA641C042CF4D3002409E02146641CD0
:1090B000685CFFF7D3FF0746042F01D1FFF77CFA66
:1090C000B442F3D3F8BDF8B505460C462078001D30
:1090D0001F2801DD0C20F8BD684679DF0646002E0A
:1090E00001D03046F7E703212278501C2070A954A4
:1090F00019212278501C2070A95420784119684603
:10910000008806F0A7FC2178401820700020E2E7D4
:10911000044600BF002211462046FFF751FC000024
:1091200070B5642003F090FE0F4800F0BFFB0446CA
:1091300000BF2546002D05D000BF0022114628465D
:10914000FFF73EFC00BF084800F062FB044600BF8A
:109150002546002D05D000BF002211462846FFF706
:109160002FFC00BF70BD0000BC220020F3B593B0FF
:109170000D460021129111911398002814D01398D4
:10918000FFF7DDFB0446002C02D0204615B0F0BDF1
:1091900012AA09A91398FFF737FB0446002C01D047
:1091A0002046F3E709AE00E00026002D13D0284644
:1091B00006F048F80446002C01D02046E6E711AA44
:1091C00001A92846FFF720FB0446002C01D02046C9
:1091D000DCE701AF00E0002710A803793A46017AE6
:1091E000304672DFD2E70000F8B504460F46154658
:1091F0001E46002C01D0002D01D10E20F8BD00200C
:10920000514908705148066051490698086020226B
:1092100029465048FEF7C4FF4E48C068002801D1D7
:109220004C4908724B488069002803D04948C069FE
:10923000002802D100204749087500F065F946482A
:10924000464908604648886030214648FEF7C1FF1D
:10925000207844490870A0788870E078C8706078F9
:10926000487008466269216942610161E268A1684B
:10927000C2608160E269A169C2618161606A00289F
:109280001BD039483749486238498160606A008894
:109290003449496A0880606A80883249496A88800E
:1092A000002005E0616A8968095C304A1154401C5D
:1092B0002C49496A89888142F4D8A06A002824D0C0
:1092C0002B492C4881602749886229492548806AB2
:1092D0008160A06A80882349896A8880A06A0088A2
:1092E0002049896A0880002005E0A16A8968095C34
:1092F0001F4A1154401C1B49896A89888142F4D84D
:109300002C20015D174820300173206A00280BD003
:10931000194814490862206A4088096A4880206A0E
:1093200000881049096A08806068002804D0134842
:109330000C4948606068486039460A48FFF716FFE4
:10934000009000985AE70000E8200020E02000206C
:10935000E4200020FC2D00202C2E00201C2E0020BC
:109360004C2E0020CC2D00206C2E0020782E0020CA
:10937000A42E0020982E0020EE200020F2200020B5
:1093800070B504462088102804D0112806D019286A
:109390007BD11EE0A0883E49088077E000203D494F
:1093A00008703D4800793D490870A088384909880F
:1093B00088420DD1012000F0AFF80546002D07D0FE
:1093C00037480068002803D028463549096888478F
:1093D0005CE0A079002857D132480078012804D0F9
:1093E00002282FD003284DD13EE02C4800780028D9
:1093F00018DD2D4804F022FD002813D027480078FE
:10940000401E26490870012000F086F80546002D10
:1094100007D023480068002803D02846204909685F
:1094200088470EE0022000F077F80546002D07D0AF
:109430001B480068002803D0284619490968884756
:1094400000BF20E0022019490870032000F064F8F2
:109450000546002D07D012480068002803D0284692
:109460000F49096888470EE000201049087010482D
:109470000068002804D0084600780D49096888472C
:1094800001E002E000BF00BF00E000BF00BF70BD10
:10949000F4200020EA200020FC2D0020E9200020FC
:1094A000E4200020E8200020D6200020DC2000203E
:1094B000E020002070B504460025022C02D0032CC9
:1094C00018D100E000BF0D480078002811D000201E
:1094D0000A4908700A48007800F01EF80546002D79
:1094E00007D008480068002803D0284605490968C5
:1094F000884700E000BF00BF70BD0000D4200020FE
:10950000E8200020E420002010B507210148FEF7E4
:1095100060FE10BDD520002030B587B005468948D3
:10952000057000200090684604F06AFE0446082C8E
:1095300002D10020009004E0002C02D0204607B0A9
:1095400030BD0098002804D001207F490870002019
:10955000F5E7FFF7D9FF7D484078002812D0794819
:10956000007801280ED17A480068002807D0012031
:1095700078490870072076490968884702E000208A
:10958000744908706F48007801280BD16F48407803
:10959000002804D0704804F051FC002802D10220B9
:1095A000684908706948007A002806D16548007843
:1095B000022802D10320634908706448007D002816
:1095C00008D160480078032804D100205D49087064
:1095D000624908705E480068002817D05948007832
:1095E000022803D05748007803280FD15748007845
:1095F00000280BD05A480078002807D1012059498B
:109600000870062052490968884702E00020554941
:109610000870182101A8FEF7DCFD002168460171E1
:1096200000200290684601730020049045480078AD
:10963000012804D002280FD003286BD13AE0464815
:10964000401E02900121684601710021C182818281
:109650000120424908705EE000216846C1823B4813
:10966000808981B2684681823F4806F0AEFB0028BF
:109670001CD036480078002818D0394800780028D7
:1096800014D10220694608733748049004203749F2
:10969000C87000213548FFF769FD0446002C01D051
:1096A00020464CE704202D49087002E002202B4997
:1096B000087030E02548008B81B2684681822348DB
:1096C000808B81B26846C182274806F07EFB002865
:1096D0001CD01E480078002818D0214800780028A7
:1096E00014D10220694608731F48049004201F49C2
:1096F000C87000211D48FFF739FD0446002C01D039
:1097000020461CE705201549087002E00320134994
:10971000087000E000BF00BF0A480078002806D0AB
:1097200001A873DF0446002C01D0204607E7084853
:109730000068002804D0094800780549096888476E
:109740000020FCE6E8200020D4200020FC2D002092
:10975000E0200020EC200020D6200020DC2000208B
:10976000EA200020EB2000201C2E0020CC2D002021
:1097700010B5024614480078002801D1082010BD19
:109780001079124B1871107B1873002106E08B00C2
:109790009068C0588B000E4CE050491C0B48007B71
:1097A0008842F4D8002106E08B001068C0588B0076
:1097B000084CE050491C054800798842F4D8002044
:1097C000014B187000BFDAE7EB2000201C2E0020B0
:1097D0004C2E00202C2E002030B50346002901D14C
:1097E0000E2030BD002A01D0202A01DD0920F8E733
:1097F0000120DC00054D2855D8002C460019428078
:10980000D800001941600020EBE700005030002034
:1098100010B50446034A918D2089012200F066FDAF
:1098200010BD00002030002038B505460C46002D44
:1098300004D0002C02D02068002801D10E2038BDB1
:109840001548056014492068096808601249606875
:1098500009684860002010490968C872FF200E4955
:10986000096888720020C0430B49096808812E21CD
:109870000A48FEF7AEFC0A48002101604160002062
:10988000064908700749684601800221817006492F
:1098900000F0A0F8D3E70000BC2100202030002019
:1098A000002F002031F400005DAB010010B504462C
:1098B000034A118C2089012200F018FD10BD000020
:1098C0002030002070B505460C462688372E02D081
:1098D000382E08D102E004F005F805E021462846BC
:1098E00003F0CCFF00E000BF00BF70BD1378112B68
:1098F00002D0142B04D100E000BF8B78837200E00B
:1099000000BF00BF704701460878032802DA887854
:109910000C2801DB072070470020FCE770B50546E6
:109920001C2229461448FEF73BFC0020134908700E
:10993000286800280BD0082211482968FEF730FC5F
:109940000F487ADF0446002C08D0204670BD0C4832
:109950007BDF0446002C01D02046F7E70020C043FF
:1099600008490880002008490870084A0021084872
:10997000FFF74CF9EAE70000902C0020BC20002003
:10998000A4200020AE200020AC200020A5FA010079
:10999000B820002010B504462088102806D01128D1
:1099A00008D012280ED0502810D107E0204603F02E
:1099B0008FFE0CE0204603F03BFF08E0204604F059
:1099C00061F804E0204603F077FE00E000BF00BF2E
:1099D00010BD000070B504460D46002C01D0002DCE
:1099E00001D10E2070BD08480078002801D1082060
:1099F000F8E706480068022801D10620F2E7294668
:109A0000204605F043F8EDE7DC210020D4210020BA
:109A1000002005490860012004490870002004491D
:109A20000860044908607047D4210020DC21002030
:109A3000D8210020D021002070B505460C46002D0D
:109A400001D0002C00D170BD19480078002800D149
:109A5000F9E72088302817D004DC102807D0112817
:109A600021D108E0322814D033281CD116E0A18877
:109A70005C20415318E062212846FEF7AAFB002132
:109A8000C9435C2041530FE0211D284603F036FFF7
:109A90000AE0211D284603F06BFD05E0211D284644
:109AA00003F06AFE00E000BF00BF00BFCBE700008C
:109AB000DC210020F8B504460F46002C01D10E2011
:109AC000F8BD1C480078002801D10820F8E71A48A2
:109AD0000068002801D10820F2E76120005D00281D
:109AE00001D01120ECE700201449086014490860F7
:109AF0000021602001555C2007536020005D2E216D
:109B0000484305196020005DC0000E4940180188D7
:109B10002980408868805C21085B2A46012190DF0B
:109B20000646002E01D03046CAE7012161200155CA
:109B30000020C5E7DC210020D4210020D82100200E
:109B4000D0210020D03000207FB5044600BF012185
:109B5000684681735D49818100BF5D4A03A9012088
:109B6000A0DF0546002D02D0284604B070BD208835
:109B700000280DDD57480090228823463C33564884
:109B8000616800F03DFC0546002D01D02846ECE759
:109B9000208900280EDD51480090228923463C335D
:109BA0004D48401FE16800F02BFC0546002D01D018
:109BB0002846DAE7208A00280EDD49480090228AEC
:109BC00023463C334448001F616900F019FC0546F8
:109BD000002D01D02846C8E7208B00280EDD414823
:109BE0000090228B23463C333B48801EE16900F005
:109BF00007FC0546002D01D02846B6E7208C00283A
:109C00000EDD39480090228C23463C333248C01E7A
:109C1000616A00F0F5FB0546002D01D02846A4E757
:109C2000208D00280EDD31480090228D23463C33E4
:109C30002948401EE16A00F0E3FB0546002D01D0F3
:109C4000284692E7206B002813D001A8216B05F06D
:109C5000E8FB274823463C33082201A900901E4810
:109C6000801F00F0CDFB0546002D01D028467CE783
:109C700000BF606B00280FD01E480090606B027917
:109C800023463C3301681448401C00F0B9FB0546EC
:109C9000002D01D0284668E7A06B002813D001A84A
:109CA000A16B04F055F9144823463C33072201A95F
:109CB00000900948273000F0A3FB0546002D01D095
:109CC000284652E700BF00204FE700000A180000B6
:109CD000F6200020F8200020292A00000021002082
:109CE0000821002010210020182100202021002020
:109CF00028210020302100203821002010B5044602
:109D0000204601F069FA21460A48FFF795FE2046F1
:109D1000FFF740FE21460848FFF7D4FD21460748DB
:109D200000F034F9204603F087FB2046FFF728FBBC
:109D300010BD0000C8220020BC22002050220020BC
:109D4000F3B585B00646374600250F2400F0AAF883
:109D50000546002D51D0069800284EDDA88E2849D2
:109D600088424AD014200490002E01D0012000E047
:109D7000002001466846FEF72CFA69896846018092
:109D8000012181700021818004A80290381D039078
:109D9000A88E6946A6DF0446112C0BD0042C09D0EE
:109DA000082C07D01748844204D0801C844201D07C
:109DB000002C03D00120144908701DE0002C1BD199
:109DC00014221249381DFEF716FA00280AD0142171
:109DD0000F48FEF7FEF901230D4A1946142004F03E
:109DE000FBFD09E014210A48FEF7F3F90123084AB4
:109DF0000321142004F0F0FD00BF07B0F0BD000007
:109E0000FFFF0000023000001D2000205421002030
:109E1000EB2E0020F0B587B005460E462F460020F9
:109E2000069000240F20059000F03CF80446002C1A
:109E300031D0002E2FDD002D2DD0A08E1749884265
:109E400029D01421049100200090019002900390E9
:109E5000618A68460180012181700021818004A807
:109E60000290381D03900AE0A08E6946A6DF059097
:109E70000698411CC9B20691052800DB02E005984E
:109E80000028F1D100BF06480078012802D1002047
:109E90000349087000BF07B0F0BD0000FFFF0000DD
:109EA0006D210020004870475022002070B586B018
:109EB00004460E46334B0FCB01AD0FC5002C01D02D
:109EC000002E02D10E2006B070BD0020C043A08637
:109ED0003068A0637068E063B068206400213620B9
:109EE00001552146323101A863DF0546002D01D01E
:109EF0002846E8E73220015D684681752249818263
:109F0000224605A90120A0DF0546002D01D02846E4
:109F1000D9E73146204604F04FFE0546002D01D01A
:109F20002846D0E73146204601F0FEFF0546002DC9
:109F300001D02846C7E73146204602F09BF8054687
:109F4000002D01D02846BEE73146204605F02CFE04
:109F50000546002D01D02846B5E73146204602F0DF
:109F6000F1FA0546002D01D02846ACE731462046DF
:109F700000F00EF90546002D01D02846A3E7002089
:109F8000A1E700005CFE0100E0BE000070B50546E0
:109F90000C46002D01D0002C00D170BD2088502827
:109FA00016D006DC012818D0102807D0112823D19C
:109FB00009E0512816D053281ED118E02146284622
:109FC00003F0A4FB19E02146284603F053FC14E0FB
:109FD0002146284603F084FD0FE02146284603F081
:109FE0000FFD0AE0211D284603F0B4FC05E02146E0
:109FF000284603F07BFC00E000BF00BF00BFCCE7B9
:10A00000F0B587B005460E462F4600200690002486
:10A010000F200590FFF746FF0446002C2AD0002EA3
:10A0200028DD002D26D0A08E1349884222D014218D
:10A03000049100200090019002900390618868468E
:10A040000180012181700021818004A80290381DC7
:10A0500003900AE0A08E6946A6DF05900698411C91
:10A06000C9B20691052800DB02E005980028F1D16D
:10A0700000BF00BF07B0F0BDFFFF000070B5044691
:10A080000D462846FEF7B0F82080656070BD014699
:10A0900000BF08784B781B0218430246D007C00F58
:10A0A000704700007CB500BF0023482221490D20E5
:10A0B00005F088F8054600BF2E46002E05D000BFEB
:10A0C000002211463046FEF77BFC00BF00BF002097
:10A0D0000090019069460870684660DF044600BF42
:10A0E0002546002D05D000BF002211462846FEF768
:10A0F00067FC00BF104805F059F8044600BF25462C
:10A10000002D05D000BF002211462846FEF758FC5E
:10A1100000BF0A4805F08AF8044600BF2546002D16
:10A1200005D000BF002211462846FEF749FC00BFBB
:10A130007CBD0000E8280020FD9C010011F4010016
:10A140007CB50446A1786A460D4804F06FF80546D0
:10A15000002D13D161781C2251430A4A88181C2310
:10A160001A46694604F06AF90748807A8000074970
:10A170000A58214668469047054600BF7CBD00004E
:10A18000C0200020702D0020A82D0020FCFD010023
:10A1900030B593B004460D4614223B496846FDF79E
:10A1A000FFFF1C210CA8FEF714F808A8007C022170
:10A1B0008843811C08A80174007C08218843411849
:10A1C00008A8017468460D9014210187418700207A
:10A1D0000F901090119012903220015D68468176A8
:10A1E0002A4901830020059000BF6846007D0109CF
:10A1F0000901491C68460175007DF0218843103033
:10A200006946087500BF00BF6846407D0109090125
:10A21000491C68464175407DF021884310306946ED
:10A22000487500BF6846807D06218843011D684649
:10A230008175807D08218843014668468175807D4F
:10A2400010218843014668468175807D4108490098
:10A2500068468175142107A8FDF7BBFF06A8079083
:10A2600005A808901421684681840021C184142126
:10A27000018507480B90208823462A3307AA0CA99A
:10A28000A2DF13B030BD000048FE0100E6BE0000B2
:10A29000C32E002070B505460C4612480068401CCD
:10A2A000002816D00F484068401C002811D00D48E7
:10A2B00080890D49098888420BDB002322463B2117
:10A2C000142004F089FB08480088401C06490880D7
:10A2D00007E00020C04303490860486000200249AD
:10A2E000088070BD0420002014200020F7B5064629
:10A2F00015462F461348006812490968491C114A3F
:10A300001160242148431049441810460078400742
:10A31000400F11460860019961830221E183211DEC
:10A3200021620021A183012121762771FF200002F3
:10A3300038400112617126800220A07005F08CFA6D
:10A340000020FEBDB4210020002F00200022D243B7
:10A3500083000549CA50042804DB1346011F024A42
:10A3600048325354704700005431002001468A009F
:10A37000014880587047000054310020F7B585B07F
:10A380000B460020C0430490002A01D0002000E0CA
:10A3900004200390002A01D0042000E00A2002904B
:10A3A00003991EE08C0012480059401C002817D168
:10A3B0000846059C0093019246B20D4D28352E5556
:10A3C0008600283D009BAB51019A002A04D166B259
:10A3D000051F074F48377E5500BF48B2049003E081
:10A3E000491C02988142DDD300BF049808B0F0BD3B
:10A3F0005431002001460148405670477C3100200E
:10A40000F0B58FB007460D4614461E4600BF002D1E
:10A4100001D0012000E0002000900098002806D123
:10A4200000BF002211461046FEF7CAFA00BF00BF67
:10A4300000BF002C01DD012000E00020009000980A
:10A44000002806D100BF002211461046FEF7B8FAD8
:10A4500000BF00BF1C2107A8FDF7BBFE6946087FAF
:10A4600002218843801C69460877002008900A90E2
:10A470000B900C900D9000BF012108A881766846D2
:10A48000078700BF0020019031786846017171781C
:10A490004171807906218843811C684681718079E9
:10A4A00008218843014668468171807910218843DC
:10A4B000014668468171807941084900684681718A
:10A4C000142102A8FDF785FE0EA8029001A80390B2
:10A4D00068460482002141828482069502AA07A967
:10A4E00002480088149BA2DF0FB0F0BDF6200020C8
:10A4F00038B504466020005D2E21484305195F20D1
:10A50000005D002811D05F22125D521ED1B2602280
:10A51000125D2E235A4315190C224A43AB1DD01845
:10A520000289521C6B461A8002E0688D69460880D9
:10A53000A88D694648805C21085B694692DF38BD7A
:10A54000F0B587B00F275548007814214843534988
:10A55000091D4418E5682078022804D0042823D077
:10A5600005287CD16AE0206905904D480088860264
:10A570006088801B0690059880190590A088801936
:10A580004519012189020698884206D20698820858
:10A590002846059929DF074605E0FF2201322846B3
:10A5A000059929DF07466FE0A06800013D49401882
:10A5B00000890690A0680001401840890590A068B5
:10A5C00000014018406804900498A84205D10599FC
:10A5D000069848436188884202D0A06802280DD1BD
:10A5E00003F0D8FE014603902846FDF7AFFD2C4945
:10A5F00009884618304628DF07461EE003F0CAFEE9
:10A60000014601902846FDF7A1FD064603F0C2FE73
:10A610007043281A8008039003F0BCFE711C484365
:10A6200061884919401A8008029031462046029BF1
:10A63000039A04F013FE074600BF25E003F0AAFECC
:10A64000014604902846FDF781FD064603F0A2FE70
:10A650007043A1884919081A8008069000E012E0AA
:10A6600003F098FE711C4843A18849196288891833
:10A67000401A8008059031462046059B069A04F052
:10A68000EDFD074600E000BF00BF002F02D1012012
:10A6900002498870384607B0F0BD0000A4310020A0
:10A6A000F82100207032002010B5002408484078BE
:10A6B00000280BDD06488078002807D1FFF740FF0F
:10A6C0000446002C02D0112C00D10024204610BDDD
:10A6D000A43100200023142141430C4A5354142177
:10A6E000414389184B8001231421414389188B6011
:10A6F0000023142141438918CB6014214143891858
:10A700000B611421414389188B807047A8310020C8
:10A71000FFB581B0064617460024224840780A2833
:10A720003CD0204800781F4949784018C4B20A2C10
:10A7300002DB20460A38C4B2142060431949091DBF
:10A740000E540022142060434018427014206043CD
:10A7500040180761142060434118029805C8CA6078
:10A760008860142161430F4A121D8918049848809B
:10A770001421614389180A9888800025101F807869
:10A78000002805D1FFF7DCFE0546112D00D100257C
:10A7900004484078401C0349487000E004252846DE
:10A7A00005B0F0BDA431002010B500200849088094
:10A7B000084908700849087048708870002403E050
:10A7C0002046FFF787FF641C0A2CF9D310BD000058
:10A7D000F8210020FB210020A4310020FEB51E48F6
:10A7E0000068401C002834D01B48006824214843DE
:10A7F0001A4909684018456804F06AF90190184838
:10A8000004682146019804F05EFEC61C15480078D5
:10A81000002801D104F06EF9AE4201D2284600E0D2
:10A82000304604192402240A20460F49086000BF5C
:10A8300004F04EF900900199009804F044FEC71C02
:10A840002046019904F03FFE874201D904F0FEFF43
:10A8500001E004F06DF9FEBD0C2200200022002072
:10A8600010220020242200204015014001460888C3
:10A87000062808DB08881922D201904205DD0888E5
:10A88000104A904201D0072070474888062808DB0C
:10A8900048881922D201904205DD4888094A904231
:10A8A00001D00720F0E70888064A904208D048887F
:10A8B000904205D008884A88904201DD0720E3E7EE
:10A8C0000020E1E7FFFF0000F8B506460D461446FC
:10A8D0002078801D1F2801D90C20F8BD3046FFF7D5
:10A8E000C5FF0746002F01D03846F6E7052122783C
:10A8F000501C2070A95412212278501C2070A95499
:10A9000022785119308805F0A5F821784018207078
:10A9100022785119708805F09DF821784018207030
:10A920000020DAE7044600BF002211462046FEF769
:10A9300047F8000030B587B01C216846FDF749FC98
:10A94000002000900520C00301900F200004029019
:10A950000321684601730021C181012101740A4865
:10A9600005900A4806906846FEF7D8FF044600BFE7
:10A970002546002D05D000BF002211462846FEF7CF
:10A980001FF800BF07B030BD89D6010025A901001E
:10A9900038B51F4801F092FF002829D11D480078E2
:10A9A00000280AD01C484069002820D000200090D0
:10A9B000194841696846884719E018480078002816
:10A9C00002D11548456801E01348856800222946F0
:10A9D00013480068FEF7F4F90446002C07D00E482F
:10A9E0008069002803D00C488169204688470AE026
:10A9F00009484069002806D00120009006484169B6
:10AA00006846884700BF00200249087038BD000032
:10AA1000B0200020BC200020902C0020AC20002082
:10AA2000B820002070B503460C460820002115E030
:10AA30000C254D430B4EAD19AD7A2540002D0CD0A1
:10AA4000094DAB4205D00C254D43AD192D899D42D2
:10AA500002D11160002003E00520491C0029E7D045
:10AA600000BF70BD9C2D0020FFFF000010B5044604
:10AA700001210C2060430A4A80188172891E0C2033
:10AA8000604380180181FF210C2060438018C1724F
:10AA90000C21614388180721FDF79BFB10BD0000C6
:10AAA0009C2D002010B514484068C105C90D00292F
:10AAB00020D00A46103A50B200280DDA0E4B1C3353
:10AAC0000407240F083CA408A4001B598407E40EC3
:10AAD000E3401B069B0F0BE0084B032424021B19C9
:10AAE0008408A4001B598407E40EE3401B069B0F57
:10AAF000D8B210BD0420FCE700ED00E000E100E06A
:10AB000010B514484068C105C90D002920D00A4677
:10AB1000103A50B200280DDA0E4B1C330407240FF4
:10AB2000083CA408A4001B598407E40EE3401B065C
:10AB30009B0F0BE0084B032424021B198408A4007C
:10AB40001B598407E40EE3401B069B0FD8B210BDCF
:10AB50000420FCE700ED00E000E100E070B588B003
:10AB6000064635460A35307800287BD1B088424900
:10AB7000884277D1B079022874D170883F4909683A
:10AB80000881002461E00C202146414330460A3010
:10AB9000405A3B49401800283BD03A494018002809
:10ABA0001DD03749C91C401800284BD10C206043E8
:10ABB00041193548097981730C2060434019C188D7
:10ABC000314801820C206043401901892E4841829E
:10ABD0000C206043401941892B48818233E00C20CE
:10ABE0006043411928482230097901710C206043E3
:10ABF0004019C188244801850C206043401901890F
:10AC0000214841850C206043401941891E488185B7
:10AC100019E00C20604341191B48097981760C200A
:10AC200060434019C188184881830C206043401953
:10AC300001891548C1830C2060434019418912489D
:10AC4000018400E000BF00BF641C307AA0429AD8A3
:10AC5000002069460870094800680168684688470E
:10AC600008E0FFE7012069460870044800680168B1
:10AC70006846884708B070BD31F40000BC21002050
:10AC8000F3EDFFFF244BFFFF2030002070B5FEF7EF
:10AC9000BFFE044600BF2546002D05D000BF0022A0
:10ACA00011462846FDF78CFE00BF70BDF0B585B09B
:10ACB00004460F46002001906020005D2E2148438D
:10ACC00005195F20005D0C214843A91D4018029022
:10ACD0005F20005D401C2979884207D103AB002228
:10ACE0002046029901F0FCFD019029E05F20065DFD
:10ACF00021E02879401EB04202D10020009005E0FA
:10AD0000701C0C214843A91D4018009003AB20463D
:10AD1000009A029901F0E4FD002802D00120019080
:10AD20000CE0009802905F20005D401CC1B25F20E3
:10AD30000155701CC6B22879B042DADC00BF00BFF2
:10AD40000198002804D101203870002005B0F0BD22
:10AD5000002038705C21085B03A993DFF6E7000050
:10AD6000FEB504460E46A1786A46284803F05EFA0E
:10AD70000546002D49D160780C21484324494018EC
:10AD8000807A40210840402801D0022E01D1214F75
:10AD900004E0012E01D1204F00E0204FA0781C22BA
:10ADA00050431F4A811800231C226846B8470546B5
:10ADB000002D1AD1022E18D060780C214843144976
:10ADC0004018807A4021884361780C225143104A10
:10ADD0008918887260781C225043124A81181C23FB
:10ADE0001A466846B847054600BF022E0DD02078A7
:10ADF0000C2148430C494018807A80000B490A58BE
:10AE0000214668469047054600BFFEBDC020002091
:10AE10009C2D002005E901006DE6010055F20100BE
:10AE2000AC2C0020702D0020A82D0020ECFD01008E
:10AE3000F8B505460E461B4F00242EE01C2060434B
:10AE400019494018807EFF2826D13078022814D076
:10AE50001C2060434018807E022188431C216143EE
:10AE6000114A891888761C216143891808461030D8
:10AE700007223146FDF794F90BE01C2060430A4994
:10AE80004018807E410849001C206043064A801813
:10AE900081762C70002702E0641C072CCED300BF03
:10AEA0003846F8BD43800000AC2C0020F8B50546BC
:10AEB0000E4617460520009000241BE0002D06D109
:10AEC0001C2060430E494018008BB8420DD0002D65
:10AED0000FD01C2161430A4A891808461030072206
:10AEE0002946FDF788F9002803D13460002000903E
:10AEF00002E0641C072CE1D300BF0098F8BD0000FD
:10AF0000AC2C00207CB50546A9B26A46084803F07F
:10AF10008DF90446002C09D14C21684603F0CEF986
:10AF20000446002C02D1284602F096FF20467CBD44
:10AF3000C0200020F7B50D4616460422244800998B
:10AF4000FDF72EF900BF3746002F05D000BF0022C5
:10AF500011463846FDF734FD00BF2A461D480099CA
:10AF6000FEF7C4FC2878112802D015282BD118E050
:10AF7000042219480099FDF713F9002203218903DF
:10AF800016480068FDF71CFF044600BF2746002F47
:10AF900005D000BF002211463846FDF711FD00BF65
:10AFA00012E0686801880E48FEF784FD044600BF81
:10AFB0002746002F05D000BF002211463846FDF776
:10AFC000FFFC00BF00E000BF00BF0020FEBD00008E
:10AFD00020200020BC22002085200020902000207E
:10AFE000C82200207FB50546039503F0D9F9044631
:10AFF00000BF2646002E05D000BF00221146304675
:10B00000FDF7DEFC00BF03A800F00AFC044600BF09
:10B010002646002E05D000BF002211463046FDF71F
:10B02000CFFC00BF052101A80130FDF7D2F868462A
:10B03000407941084900491C684641714079202106
:10B040008843014668464171072181711021C17111
:10B05000134800900121684601714079022188431C
:10B0600001466846417140791C2188430C3069468D
:10B0700048710522491D0B48FDF792F869460A48B8
:10B0800000F050FD044600BF2646002E05D000BF4C
:10B09000002211463046FDF793FC00BF7FBD000043
:10B0A00035AF0100892000201F200020F8B504469C
:10B0B0000D466020005D2E2148430719384603F0F5
:10B0C000C5FC0646002E3CD01E480068022838D237
:10B0D0005C20015B1B480068382250431A4A8018E4
:10B0E0004180002D12D000211648006838225043BC
:10B0F000154A11541349096838225143124A8918D4
:10B10000081D2E223946FDF74BF806E002210D48B6
:10B110000068382250430C4A11540A48006838210C
:10B12000484309494018466306480068401C0549E1
:10B1300008600846006805490968884201D102F0A4
:10B14000B3FEF8BDD0210020E0300020D421002043
:10B15000F8B504460D466020005D2E2148430719CE
:10B16000384603F073FC0646002E2ED017480068C0
:10B1700002282AD25C20015B144800683822504320
:10B18000134A80184180012110480068382250433A
:10B190000F4A11540D4800683821484311464018A1
:10B1A00045600A4800683821484311464018466304
:10B1B00006480068401C05490860084600680549C3
:10B1C0000968884201D102F06FFEF8BDD02100204D
:10B1D000E0300020D4210020F0B58FB00446FF20DD
:10B1E0000D9000260020079000BFFE480078002840
:10B1F00001D10FB0F0BD00BF00BFFB4800680028C0
:10B2000000D1F6E700BF0CA800F0FCFA054600BF2D
:10B210002F46002F06D000BF002211463846FDF70A
:10B22000CFFB00BF00BF002008900025201D0A9022
:10B230002A2168468185FF2108A8817400210174B4
:10B2400000200E902088102813D0A0880EAA02217A
:10B25000FFF7E8FB0546002D0BD10C210E98484363
:10B26000E2494018C17A08A881740E98C1B208A8B2
:10B270004174208817287BD008DC10280DD01128B5
:10B280007CD0132876D0142875D1B5E0182873D057
:10B290001C2872D05228F7D17BE20EAF3A4601212A
:10B2A000D348FFF7BFFB00900098002807D1022188
:10B2B0000C2238685043CD4A8018817201E0042086
:10B2C000009000980546002D51D10126112108A8B3
:10B2D00001710E98C1B208A84174A1880C220E9881
:10B2E0005043C24A8018018102210C220E9850431B
:10B2F000BE4A801881720C220E995143BB4A8818AD
:10B300000722A11DFCF74CFF207D304000280AD009
:10B31000207D4008B749085CFF280AD0207D4008FE
:10B32000085C0D9005E0B24A0DA9A01DFFF7BEFD17
:10B330000546002D1BD10D98C1B20C220E9850432A
:10B34000AA4A8018C1720C210E9848431146401831
:10B35000807A082108430C220E995143A34A891888
:10B36000887208A90D9888740CA8FEF7E9FE1FE200
:10B37000F7E003E085E01AE2AAE113E20C210E985F
:10B3800048439A494018807A022188430C220E993A
:10B390005143964A891888720C210E9848431146E9
:10B3A0004018807A0821084008280ED10C210E98F8
:10B3B000484311464018807A8021084080280FD1E8
:10B3C00000210CA8FFF7CCFC0AE008A8807CFF282D
:10B3D00006D008A9887C02F03FFDFF2008A98874E8
:10B3E00010210C220E985043804A80188172012649
:10B3F000122008A90871DBE10C210E9848437B4913
:10B400004018C07AFF2823D1E2890DA90020FFF758
:10B410004DFD0546002D1BD10D98C1B20C220E9892
:10B420005043724A8018C1720C210E98484311464D
:10B430004018807A082108430C220E9951436B4A28
:10B440008918887208A90D9888740CA8FEF778FEF0
:10B450000C210E98484365494018C07AFF2805D052
:10B460001C210E9848436449401807901C230E99EC
:10B470005943624BCA18A0880023079982DF05460A
:10B4800096E1132008A908710C210E9848435749EA
:10B490004018807A042108430C220E995143534AE4
:10B4A0008918887201260C210E98484311464018CD
:10B4B000C07AFF2819D10C220E9850430A468118F1
:10B4C0000DA8FFF7B5FC0546002D0BD108A90D9876
:10B4D00088740D98C1B20C220E985043434A8018CC
:10B4E000C1721AE00895012617E0162008A9087114
:10B4F0000E9800014249401800218160C1600C2172
:10B500000E98484339494018807A402108430C225C
:10B510000E995143354A89188872002004900C21F5
:10B520000E98484331494018C07A1C21484333499A
:10B5300041180591002106911C210E9848432E497F
:10B5400040180190002002900390A08801AB264A89
:10B55000121D00217FDF0546002D01D00895002631
:10B5600026E12148407A400840001F4948720C21DA
:10B570000E9848431D494018807A042188430C22C4
:10B580000E995143194A89188872142008A9087124
:10B590000126A07900280AD00C220E995143134AA3
:10B5A0008918C87AFFF7AEFCA07908908FE0E0799F
:10B5B0004007C00F00287DD008A8807CFF2879D0E4
:10B5C0000C210E98484309494018807A0821084305
:10B5D0000C220E995143054A89188872E07A800737
:10B5E000C00F0FE0CC200020A82D00209C2D0020B3
:10B5F000FFFF0000CD200020702D0020AC2C00208B
:10B600008C2D002000280FD008A8807C1C214843E6
:10B6100075494018807E4108490008A8807C1C229A
:10B620005043714A801881760C210E9848436F4927
:10B630004018C07AFF284AD00C210E9848436B4925
:10B64000085C022820D00C230E9A5A430B46D118CE
:10B6500008AA927C1C235A43634BD2181046103020
:10B660000722FCF79DFD08A8807C1C2148435E4909
:10B670004018807E0221884308A9897C1C225143FE
:10B68000594A891888761EE01C210E98484358496B
:10B690004018418A08A8807C1C225043524A8018D6
:10B6A000018308A8807C1C21484311464018807EF5
:10B6B000410800E00BE0490008A8807C1C225043B0
:10B6C000494A8018817601210CA8FFF749FB6FE0F9
:10B6D000A079000901283BD1A0790007000F0128BB
:10B6E00036D10C210E98484340494018807A0821F1
:10B6F000084008282CD10E9800013E49401800212E
:10B700008160C160162008A908710C210E98484379
:10B7100036494018807A202108430C220E99514363
:10B72000324A891888720C210E98484311464018F5
:10B73000807A402108430C220E9951432B4A8918E4
:10B7400088722D48407A022108432B4948721CE038
:10B750000C210E98484325494018807A80210843DF
:10B760000C220E995143214A89188872152008A984
:10B7700008712148807A8000204A11580CA8884717
:10B780000546002D01D01E48089000200890012693
:10B790000EE01948807A8000184A11580CA8884792
:10B7A000089005E0132008A90871012600E000BFF9
:10B7B00000BF002E16D009A90CA8089AFDF702F9BF
:10B7C00008A8007912280DD100BF0C210E9848431B
:10B7D00006494018807A012802D00E98FFF746F9F2
:10B7E00000BF00BF00BF04E5AC2C00209C2D002052
:10B7F000702D00208C2D0020A82D00200CFE0100B3
:10B80000418000000146002901D104487047FF2013
:10B81000087048708870C8700020F7E70E8000003C
:10B820007FB50646002E02D1384804B070BD002412
:10B830000FE000BF00210C206043354A11500C205E
:10B840006043801841720C2060438018817200BFF1
:10B85000641C002CEDD0002403E02046FFF706F91D
:10B86000641C002CF9D02B480021016041608160EC
:10B87000C160002406E0204602F0EEFAFF202649CF
:10B880000855641C072CF6D34C216846818107219A
:10B89000C18122480290224902A802F045FE0546D5
:10B8A000002D30D101201F4908703078002821D1A7
:10B8B00000241CE0A1B26A46194802F0B7FC054614
:10B8C000002D0FD11C216143174A881800231C2228
:10B8D000694602F0B3FD0546002D07D0002011494E
:10B8E000087006E000200F49087002E0641C072C75
:10B8F000E0D308E06A469089D289504381B2084873
:10B9000002F0DCFC054628468FE700000E800000B0
:10B91000A82D00208C2D0020CD2000202DB9010065
:10B92000C0200020CC200020AC2C0020FFB591B01E
:10B930000F461D4600BF73480068002801D115B0AE
:10B94000F0BD00BF1A984C2800D9F8E701200790F5
:10B950000DA8FFF757FF064600BF0696069E002E6D
:10B9600006D000BF002211460698FDF729F800BF57
:10B9700000BF002108A8017501760C951A980B905C
:10B980000020069017E0069881B208AA5E4802F0EF
:10B990004DFC0646002E0BD1082208A91198FCF791
:10B9A0002AFC002804D10698C1B208A8817505E0D8
:10B9B0000698401C069006980728E4D300BF08A804
:10B9C000807DFF2874D0042F0AD11A984C2803D107
:10B9D000202008A9087671E0402008A908766DE0CB
:10B9E0004A49681A1C21FCF7B1FB0446072C1DD2FA
:10B9F0000AA80F901398002810D108A9887D01216A
:10BA00008140434A12681140002901D0012100E021
:10BA10000021002902D1002007904FE008A9887D6D
:10BA200004F036F8202008A9087647E03949681A5A
:10BA30001C21FCF78BFB0446002C1AD10AA80F909E
:10BA4000202108A801764475002004903249059110
:10BA50001C2060432F494018019008A8807D1C21BC
:10BA600048432A494018029001A80C9018200B90D6
:10BA700024E02A48281A0409002C1AD1302108A8E9
:10BA8000017644750121C1750C206043244940189A
:10BA9000807A02210840022810D008A8407D0001C9
:10BAA0001E4940180021016041608160C16005E0CD
:10BAB00026E000200790402008A908760798012872
:10BAC0001ED1042F06D108A9087E0321084308A926
:10BAD00008760EE0032F06D108A9087E012108434D
:10BAE00008A9087605E008A9087E0221084308A9EC
:10BAF00008760AA80F900EA90DA8139AFCF762FF0A
:10BB000000BF1CE7A82D0020C0200020AC2C002086
:10BB1000C8200020702D0020B42D00208C2D002086
:10BB20009C2D002070B505460C4600BF29480078C2
:10BB3000002801D1284870BD00BF002D02D1264841
:10BB4000801DF8E7002C02D12348801DF3E7206810
:10BB5000002802D12048801DEDE720480068002819
:10BB600034D11E49206808600522611D1B48001D54
:10BB7000FCF716FB2079194988720846007A4008BC
:10BB8000400008720846007A02218843801C13494D
:10BB900008720846007A0421884310490872084652
:10BBA000C07940084000401CC8710846C079022195
:10BBB0008843801C0949C8710846C079042188431C
:10BBC0000649C87100202870002601E0024E361F89
:10BBD0003046B0E7CC20002008800000A82D0020CF
:10BBE00070B5044600BF20480078002801D11F48E6
:10BBF00070BD00BF002C02D11C48801DF8E700BFBB
:10BC00002078012806DA20780C2148431849085882
:10BC1000002801D11548EBE700BF00BF607801287C
:10BC200007DA60780C21484312494018807A0128CD
:10BC300002D10E480830DBE700BF0C4D60780C21C4
:10BC400048430C494018807A02210840022809D153
:10BC500061780C225143074A891808890449091D53
:10BC60007EDF05462846C3E7CC2000200880000080
:10BC7000A82D00209C2D0020024600BF2B480078F4
:10BC8000002801D12A48704700BF002A02D1284865
:10BC9000801DF8E7002902D12548801DF3E700BF89
:10BCA0001078012806DA10780C235843214B1858D5
:10BCB000002801D11E48E6E700BF00BF50780128E8
:10BCC00007DA50780C2358431B4BC018807A0128A0
:10BCD00002D117480830D6E700BF50780C235843EC
:10BCE000154BC018807A04231840002809D15078D9
:10BCF0000C235843104BC018807A2023184000288A
:10BD000002D0012008700EE050780C2358430A4BF3
:10BD1000C018807A80231840002802D002200870C2
:10BD200001E0002008700020ADE70000CC200020DA
:10BD300008800000A82D00209C2D0020F8B50446A6
:10BD400000BF3F480078002801D13E48F8BD00BF41
:10BD5000002C02D13B48801DF8E7002902D1394868
:10BD6000801DF3E70868002802D13648801DEDE702
:10BD70008868002802D13348801DE7E700BF20789B
:10BD8000012806DA20780C2568432F4D2858002812
:10BD900001D12C48DAE700BF0023002200200090E8
:10BDA00000BF47E00025009500BF12E00C266E435F
:10BDB000264FF619F67A86420AD10C266E43F619FA
:10BDC000B67A02273E40022E02D10126009602E0FA
:10BDD0006D1C002DEAD000BF009D002D29D10D7BE8
:10BDE000954211D91C254543194EAD19AD7EED077D
:10BDF000ED0F002D08D11C254543AD1997008E6825
:10BE0000F551144EB054521C0D799D4211D91C2588
:10BE100045430F4EAD19AD7E02263540002D08D1A9
:10BE20001C2545430A4EAD1910359F000E68F5518B
:10BE30005B1C401C0728B5D30B710A73002085E7F3
:10BE4000CC20002008800000A82D00209C2D002080
:10BE5000AC2C0020CD200020014614480078144A64
:10BE6000127890421DD011480078401C0F4A107083
:10BE700010460078022801D1002010700B4800788D
:10BE800080000C4A105808600B4A08681268801835
:10BE9000094A1060104600680002000A1060012084
:10BEA00070470020086000BFFAE700001C22002055
:10BEB0001D2200201422002010220020F0B503468D
:10BEC000002426E0164E366824277E43154F3F682F
:10BED000F01946689E4203D94668F61A46601DE08E
:10BEE00046689B1B466834190026466006750C4E52
:10BEF00035680B4F066A3E600669002E08D00E19A1
:10BF00003602360A86600669C660166806621560E3
:10BF100000BF03480068401C0028D3D100BFF0BD1B
:10BF20000C2200200022002030B58FB004460D46C0
:10BF30000020079000BF6846007F01090901491CE5
:10BF400068460177007FF021884310306946087702
:10BF500000BF00BF6846407F01090901491C6846CF
:10BF60004177407FF021884310306946487700BF11
:10BF70006846807F06218843811C684681771C21A2
:10BF800008A8FCF726F908A8007802218843811C3C
:10BF900008A80170007810218843411808A8017092
:10BFA00031480990142168460185418500200B9095
:10BFB0000C9007A80D9000200E903220015D68467D
:10BFC00081712A4981800020009000BF6846007876
:10BFD00001090901491C684601700078F021884375
:10BFE00010306946087000BF00BF684640780109FC
:10BFF0000901491C684641704078F021884310309F
:10C000006946487000BF6846807806218843011D54
:10C0100068468170807808218843014668468170AF
:10C0200080781021884301466846817080784108F5
:10C030004900491C68468170142102A8FCF7C9F820
:10C0400001A80290684603901421018200214182D8
:10C050001421818206480690208823460A3302AACA
:10C0600008A9A2DF0FB030BD82210020E2BE00008F
:10C07000C32E002030B58FB004460D460020079037
:10C0800000BF6846007F01090901491C6846017725
:10C09000007FF021884310306946087700BF00BF59
:10C0A0006846407F01090901491C68464177407F85
:10C0B000F021884310306946487700BF6846807F8A
:10C0C00006218843811C684681771C2108A8FCF75B
:10C0D00080F808A8007802218843811C08A8017014
:10C0E000007810218843411808A801703148099050
:10C0F000142168460185418500200B900C9007A80B
:10C100000D9000200E903220015D684681712A4911
:10C1100081800020009000BF684600780109090175
:10C12000491C684601700078F02188431030694648
:10C13000087000BF00BF6846407801090901491C2A
:10C14000684641704078F021884310306946487055
:10C1500000BF6846807806218843011D68468170CB
:10C1600080780821884301466846817080781021D4
:10C170008843014668468170807841084900491C1F
:10C1800068468170142102A8FCF723F801A80290E8
:10C19000684603901421018200214182142181828A
:10C1A0000648069020882346123302AA08A9A2DF77
:10C1B0000FB030BD96210020E3BE0000C32E00204A
:10C1C0003EB500BF6846007801090901491C00918D
:10C1D00068460078F02188431030009000BF0922A3
:10C1E0001CA168467CDF044600BF2546002D05D013
:10C1F00000BF002211462846FCF7E2FB00BF0020EA
:10C20000019002901021684681805021C180002158
:10C210000181FF219131418101A87ADF044600BFED
:10C220002546002D05D000BF002211462846FCF708
:10C23000C7FB00BF042077DF044600BF2546002D62
:10C2400005D000BF002211462846FCF7B9FB00BF0D
:10C250003EBD0000476F67676C6550616C00000071
:10C260000146002070470246002070470246002029
:10C2700070470000F8B50546002700200090002612
:10C2800068780001304940184068002822D068785A
:10C290000C2148432D494018807A8021084080288D
:10C2A00018D168780C21484328494018807A4021E9
:10C2B000084040280ED068780001234940180746FE
:10C2C0000837687800014018808880B2009068784C
:10C2D00000010E5869780C2251431C4A89180889BC
:10C2E00033463946009AA9DF04460B2C0BD10126B0
:10C2F00069780C225143154A891808893346394612
:10C30000009AA9DF0446002C00D0114C012E18D150
:10C3100069780C2251430D4A891808890D4A0C216D
:10C32000A7DF0446002C0CD00B48844208D0082C10
:10C3300006D0801C844203D0112C01D0002400E0E0
:10C34000034C2046F8BD00008C2D00209C2D0020C1
:10C3500041800000FFFF00000230000070B505467C
:10C360000C46617809010C4A8818382310222946A6
:10C3700002F064F80646002E0CD1607800010649F0
:10C3800040184068401C002804D161780901024A25
:10C3900089184860304670BD8C2D0020F3B583B0FD
:10C3A0000C4603260820029061780C2251432A4A49
:10C3B00089180889334602AA6946AADF0746002F72
:10C3C00047D161780901254A89180846083069462D
:10C3D0000A89FBF710FF002813D160780C2148432D
:10C3E0001D494018807A02210840022831D0607827
:10C3F00000011A4940180021016041608160C1605C
:10C4000027E060780001154940184068002801D0F5
:10C41000134D00E0134D6078000110490E5069463D
:10C420000889617809010D4A891848606178090115
:10C4300089180846083069460A89FBF7B1FE60781A
:10C440000001064A8118382310220398A84707469E
:10C4500000BF002005B0F0BD9C2D00208C2D0020D9
:10C4600005E901006DE6010070B505462846FFF7B5
:10C4700001FF0446002C02D100BF00BF0446204645
:10C4800070BD70B505460E4631462846FFF766FF7B
:10C490000446002C02D100BF00BF0446204670BDF8
:10C4A00070B505460E4631462846FFF777FF04462D
:10C4B000002C02D100BF00BF0446204670BD000022
:10C4C000F8B500BF1348144B062211460090002017
:10C4D000FCF7FEFB054600BF2E46002E05D000BF30
:10C4E000002211463046FCF76BFA00BF00BF0B4A32
:10C4F00000210B48FCF78AFB044600BF2546002DAF
:10C5000005D000BF002211462846FCF759FA00BFAB
:10C51000F8BD0000B58C01008824002005ED010065
:10C520009020002070B504460D46204600F0C8FD5E
:10C53000002803D0002001F07FFA02E0012001F082
:10C540007BFA70BD30B593B004460D4614223B49CA
:10C550006846FBF725FE1C210CA8FBF73AFE08A84D
:10C56000007C02218843811C08A80174007C0821FA
:10C570008843411808A8017468460D90142101876A
:10C58000418700200F901090119012903220015D91
:10C59000684681762A4901830020059000BF6846DD
:10C5A000007D01090901491C68460175007DF021E3
:10C5B000884310306946087500BF00BF6846407D5B
:10C5C00001090901491C68464175407DF0218843F5
:10C5D00010306946487500BF6846807D0621884353
:10C5E000011D68468175807D0821884301466846A3
:10C5F0008175807D10218843014668468175807D64
:10C6000041084900491C68468175142107A8FBF7B9
:10C61000E0FD06A8079005A80890052168468184DA
:10C620000021C1840521018506480B9020882346FE
:10C63000223307AA0CA9A2DF13B030BD34FE0100DB
:10C64000E5BE000068210020F0B585B007460C4625
:10C650000025012604E0A05D4019C5B2701CC6B2D9
:10C66000042EF8DBE843C5B22079A8427ED12078B9
:10C67000BE28FBD1A078052837D008DC01280DD0D2
:10C68000022819D003283AD0042814D142E0062801
:10C6900020D0072849D0FF28F7D151E0012002F02F
:10C6A00067FD14214A48FBF794FD0123484A002105
:10C6B000142002F091F987E0002002F059FD1421C6
:10C6C0004348FBF786FD0123414A0321142002F071
:10C6D00083F979E014213E48FBF77BFD01233C4AB6
:10C6E0002021142002F078F96EE0E07839490870D2
:10C6F00001230A461021142002F06EF964E014218F
:10C700003348FBF766FD0123314A1421084602F045
:10C7100063F959E014212E48FBF75BFD01232C4AF5
:10C720003021142002F058F94EE014212848FBF77C
:10C7300050FD0123264A4421142002F04DF943E024
:10C74000E078000621790904084361790902084369
:10C75000A179084320490860E0790006217A09049C
:10C760000843617A09020843A17A00E02DE00843FA
:10C77000194948600020886008681421FBF7E6FC2E
:10C780001549888108681421FBF7E0FC002901D0D5
:10C79000012000E000201049898940180E49888155
:10C7A00000200E49088014216846FBF712FD0A4854
:10C7B0000068009008484068019001236A463A21C9
:10C7C000142002F009F900BF00BF05B0F0BD000061
:10C7D000A822002094220020042000201420002001
:10C7E000F8B529480078002800D1F8BD274800682E
:10C7F000002801D1012000E00020054624480068FF
:10C80000002801D1012000E00020064600BF002DD5
:10C8100014D1684651DF0446052C01D101250CE0F6
:10C82000002C06D000BF002211462046FCF7C8F8B5
:10C8300003E0164900980968884700BF002E1AD106
:10C8400014480088009069461348006861DF044678
:10C85000052C01D101260DE0002C06D000BF0022DE
:10C8600011462046FCF7ACF804E00B480068084984
:10C870000968884700BF002D02D0002E00D000E0DC
:10C88000C5E700BF00BFB0E73C2200204C220020DB
:10C8900048220020442200204022002010B50246F9
:10C8A0000B896020805C2E2460438018808D834239
:10C8B00001DA012010BD0020FCE700000146488895
:10C8C000064A1288904206DB4888044A5288904201
:10C8D00001DC012070470020FCE70000A4200020BC
:10C8E00070B50446002A16D10D896020005D2E2601
:10C8F00070430019808D854201D1002070BD0889E8
:10C90000401C18806020005D2E2568430019808D32
:10C9100058800120F2E70889401CD588A84201D13F
:10C920000020EBE70889401C1880D088401E588002
:10C930000120E3E70C48008CC0B2012812D10A485C
:10C94000808C0007000F00280CD10748806AF02176
:10C950000840402806D10448C06A0840002801D198
:10C96000012070470020FCE7C00F00F01948008C40
:10C97000C0B201282CD11748808C0007000F002876
:10C9800026D11448806AF0210840002806D11148B9
:10C99000C06A0840002801D1012070470D48806A14
:10C9A000F0210840102806D10A48C06A0840002833
:10C9B00001D10120F1E70748806AF02108403028C2
:10C9C00006D10448C06A0840002801D10120E4E7EC
:10C9D0000020E2E7C00F00F001468807800F002822
:10C9E00001D1012070470020FCE70000FEB52B4874
:10C9F000006801902A480078009040E00098C0004C
:10CA0000284909684418257835E01820684361688A
:10CA10000F18681CC5B2A078A84200D1002538784C
:10CA2000022802D0032823D10EE02421786848434D
:10CA30001D4909684618307D002804D0786802F046
:10CA400007FE0020307514E00CE014490968242228
:10CA50005143154A12688818002101750F4A016A6E
:10CA6000116000BF0D480068401C0028EDD100E0B7
:10CA700000BF00BF00BF6078A842C6D100BF0098C9
:10CA8000411EC9B200910028B8D10448016801983C
:10CA9000814201D00120FEBD0020FCE70C220020D5
:10CAA000042200200822002000220020FEB50746B4
:10CAB00043480068029043480078019071E0019873
:10CAC000C00041490968451863E0781C002807D078
:10CAD0003E46242070433D4909684418276A29E0EE
:10CAE0002978182359436A6850182978491C2970F5
:10CAF0002978AA78914201D1002129704668242121
:10CB00007143324A12688C180178012902D1217DC3
:10CB1000002900D03DE08168A160C168E160016941
:10CB200021614169E1612A490978002901D0002188
:10CB3000A16000BF2749A0680968401A0002000AE6
:10CB40002549884208D22349A068096802F0BBFC45
:10CB5000E1684018606011E01E48A168006802F0BA
:10CB6000B2FC0090E1680098814204D9E168009825
:10CB7000081A606001E00020606000BF0020A06033
:10CB8000E06001202075801E2062304602F0F2FC39
:10CB900000BF781C002898D128786978884294D101
:10CBA00000BF0198411EC9B20191002887D10448F5
:10CBB00001680298814201D00120FEBD0020FCE7FF
:10CBC0000C22002004220020082200200022002045
:10CBD0002522002010220020FFFF7F0008B5002042
:10CBE00000902C48C76900202A49C861FFF768FCFB
:10CBF00002F0BEFEFDF756FA00BF274A0A211820B0
:10CC0000FBF7D6FF054600BF2E46002E05D000BF1D
:10CC1000002211463046FBF7D3FE00BF00BFF807E5
:10CC2000C00F002801D0012000900098FEF7DAF92B
:10CC300005200321020707231B02D2188300D150CD
:10CC400000BF00BF01218140144AD16000BFFEF740
:10CC50001DF801F099FFFFF7B3FA114871DF02F0F8
:10CC6000C9F8FBF777FEFDF765FE0220FCF754FCE0
:10CC7000044600BF2546002D05D000BF0022114606
:10CC80002846FBF79DFE00BF00BFFBF781FF01F0C8
:10CC9000AEF9FAE700050040302B002000050050F7
:10CCA00016200020F8B505460E4614462879801C4B
:10CCB000C7B22078801CC0191F2801DD0C20F8BDE8
:10CCC000781CC1B22278501C2070B154FF21227808
:10CCD000501C2070B15422789119288802F0BAFEB5
:10CCE000217840182070A88800280EDDA868002848
:10CCF00001D10720E3E7AA8823789819A968FBF7F0
:10CD00004FFA20782979401820700020D7E7F7B52E
:10CD100084B004460F4606980678B01C1F2803DC32
:10CD20006078801C1F2802DD0C2007B0F0BD1F209A
:10CD3000801B801E85B20295B11C781802A97DDF88
:10CD400003900398002801D00398EEE7207802288A
:10CD500008D168460089A84204DC09200190684691
:10CD600005890BE0082001906078002804D06078E5
:10CD7000A84201DC657801E068460589681CC2B2FA
:10CD80003046711CCEB23A543046721CD6B201996C
:10CD9000395406980178A81C0818C1B20698017089
:10CDA0000020C2E7014604480088814201DA481C9D
:10CDB00000E00020C0B2704734220020014600206D
:10CDC0007047024600207047024600207047828864
:10CDD000002A00D100BF704710B50446A078012892
:10CDE0000DD1207802280AD014211648FBF7F1F95A
:10CDF0000123144A4121142001F0EEFD20E0A07827
:10CE000004280DD1207802280AD014210D48FBF700
:10CE1000E0F901230B4A4221142001F0DDFD0FE06F
:10CE2000A07806280CD12078022809D014210548C2
:10CE3000FBF7CFF90123034A4321142001F0CCFD75
:10CE400010BD0000A822002001B505E00098401E9A
:10CE500000900348FBF73EF900980028F6D108BD82
:10CE6000E703000070B504460D4629462046FBF74F
:10CE70002BFB00BFE106C90E012088400549086070
:10CE800000BF00BFE106C90E0120884002490860CA
:10CE900000BF70BD80E200E000E100E070B5044634
:10CEA000204601F031F8002812D000BFA100184A36
:10CEB000891809680222914308460221014305228C
:10CEC000120707231B02D218A300D15000BF1EE097
:10CED000204601F025F8002819D02046FDF78AFAEF
:10CEE000054628460B4951221201891882008958AB
:10CEF00049084900074A51231B01D2188300D15029
:10CF000000BF0120A8400449886000BF00BF70BD79
:10CF1000000700500060004000630040FEB5054679
:10CF20000E46284600F0F0FF002822D02846FDF7E4
:10CF300061FA001F009000F0D3FF0746BC11032CDC
:10CF40000CD100BF1F4800690121A94008400028FA
:10CF500001D0032000E00220019005E0012C01D166
:10CF6000022000E0032001902846019900F093F987
:10CF700027E0284600F0D4FF002822D02846FDF7FD
:10CF800039FA0446A000FF30013087B220460E492E
:10CF900051221201891882008958012211430A4A3C
:10CFA00051231B01D2188300D15000BF384600F036
:10CFB000ABF9002E04D00121A140084600F0B8F9D9
:10CFC00000BFFEBD0005005000600040F7B582B014
:10CFD00004460E4600200190204600F087FF0028FE
:10CFE00002D0082001905FE0F27820460499FDF716
:10CFF000C5F90546681C002853D0B078002810D029
:10D0000000BFA1002A4A89180968022291430846F4
:10D0100005210907072212028918A200885000BFC3
:10D020000AE0707881000522120707231B02D2183C
:10D03000A300D15000BF00BFF078002826D0377879
:10D040001C48512109014018A90040581A490840BC
:10D050001849512212018918AA00885015485121F7
:10D0600009014018A900415820021F221202104055
:10D070003A0403231B041A40104301430D48512274
:10D0800012018018AA00815000BF0CE0281F0B4934
:10D09000085C31788901084342B2281F07490A54C5
:10D0A00001E00420019000BF019805B0F0BD000030
:10D0B0000007005000600040FFE0FCFF9C310020B2
:10D0C000014600BF05480069C840C007C00F0028DE
:10D0D00001D0012070470020FCE70000000500504F
:10D0E00070B505462846FFF7D9FE284600F018FF20
:10D0F00000280CD02846FDF77DF9044600200B4996
:10D10000512212018918A200885000BF00BF284692
:10D1100000F0B8F82846FDF76DF9C4B22046FDF7D7
:10D1200015F9284600F00CFF70BD000000600040BB
:10D1300010B512480078002801D0082010BD002446
:10D1400004E0204600F0FCFE601CC4B2202CF8DB9A
:10D15000002404E02046FDF7F9F8601CC4B20A2C54
:10D16000F8DB01210620FFF77DFE0120C00700F05B
:10D17000DFF80120014908700020DFE7503100206E
:10D1800003480078002801D0012070470020FCE708
:10D1900050310020FEB504460E4600200190204686
:10D1A00035490956491C002901D0012100E0002120
:10D1B000002902D0082001905BE0B07800283AD026
:10D1C000012200212046FDF7D9F80546681C0028F9
:10D1D0002ED03778727800922848512109014018E2
:10D1E000A9004058264908402449512212018918B3
:10D1F000AA0088502148512109014018A90041582E
:10D2000020021F22120210403A0403231B041A407A
:10D210001043009A120501231B051A4010430143D5
:10D220001648512212018018AA00815000BF01E067
:10D230000420019006E000BF0121C9430E480155BA
:10D2400000BF00BF0198002813D100BF03200521B3
:10D250000907072212028918A200885000BF7078BF
:10D26000012803D1204600F041F802E0204600F0FA
:10D2700035F80198FEBD00007C31002000600040C0
:10D28000FFE0ECFF02210522120707231B02D21840
:10D290008300D150704710B50522120707231B02E7
:10D2A000D2188300D25803231B049A4305231B077B
:10D2B000072424021B1984001A5105221207072390
:10D2C0001B02D2188300D2580B041A4305231B07F4
:10D2D000072424021B1984001A5110BD012181402A
:10D2E000014AD160704700000005005001218140D3
:10D2F000014A916070470000000500500146014856
:10D30000081870470060004010B504462046FFF73B
:10D31000F5FF0021016010BD10B504462046FFF75F
:10D32000EDFF0068012800D110BD0020FCE70000DF
:10D3300001494860704700000063004070B594B038
:10D3400005462B00FBF700FA070905060807340C11
:10D3500034002EE02DE02CE02BE001F00FFF28E060
:10D36000082110A80171017308A810906846129056
:10D3700010A91148FEF7E2FC044600BF2646002E25
:10D3800005D000BF002211463046FBF719FB00BF55
:10D3900010A8FCF7EDF9044600BF2646002E05D084
:10D3A00000BF002211463046FBF70AFB00BF00E039
:10D3B00000BF00BF14B070BD1F20002070B5044630
:10D3C00000252078002806D0012815D0022805D095
:10D3D000042827D10AE0FBF7A3FE24E01348E26803
:10D3E000A16806C00838FFF7F7FC1CE020461030A3
:10D3F000E169FFF7ECFC16E00D4800880D49884212
:10D400000FD013210A48008876DF054600BF2E465C
:10D41000002E05D000BF002211463046FBF7D0FA9F
:10D4200000BF00E000BF00BF70BD000094200020DE
:10D4300000200020FFFF000070B504460025208872
:10D4400017286FD00CDC102817D004DC012842D03C
:10D4500002287FD13DE0112813D013287AD137E07C
:10D46000512837D004DC182872D0392872D11DE039
:10D4700052286ED055286DD119E0A0883749088010
:10D4800069E014213648FAF7A4FE0123344A372113
:10D49000142001F0A1FA0020C0433049088031492E
:10D4A0000860486000203049088054E000BF132124
:10D4B0002A48008876DF054600BF2E46002E05D09C
:10D4C00000BF002211463046FBF77AFA00BF42E067
:10D4D00041E040E03FE025480078012806D00228DE
:10D4E00022D0032810D0FF282DD12BE014211C4876
:10D4F000FAF76FFE00231A4A0221142001F06CFA99
:10D50000FF201A4908701EE014211548FAF761FE41
:10D510000023134A2221142001F05EFAFF20134950
:10D52000087010E013E015E014210D48FAF751FEE1
:10D5300000230B4A1221142001F04EFAFF200B4960
:10D54000087000E000BF00BF05E001E001E000BF9F
:10D5500001E000E000BF00BF70BD0000002000201F
:10D56000A822002004200020142000201D200020DC
:10D57000F3B587B00546002006906020405D2E215F
:10D580004843441908984088002857D10898083023
:10D5900005902079049005980078039003990498E9
:10D5A0004018032804DC217903980818207101E051
:10D5B00003202071049E0020029017E00A220298A6
:10D5C00042430598801C11180C207043A21D83183B
:10D5D0000A221846FAF7E4FD00210C207043A21D30
:10D5E00080184181761C0298401C02902079B0423C
:10D5F000E4D8701E0C214843A11D40180190284614
:10D600000199FFF74BF9002802D02079032802D1B5
:10D610000120069011E021795F2041552846FCF752
:10D6200067FF0746002F08D0002161204155394689
:10D630002846FDF78DFD09B0F0BD01E00120069000
:10D64000069800281DD000215F20415505A92846D5
:10D65000FDF72CFB0746002F07D000216120415524
:10D6600039462846FDF774FDE5E76846007D002849
:10D6700006D001212846FDF719FD284600F07EF965
:10D6800000BF00BFD7E7000070B505462878002826
:10D690000FD13B210748008876DF044600BF2646AD
:10D6A000002E05D000BF002211463046FBF788F956
:10D6B00000BF70BD0020002010B504460822A11D47
:10D6C0000248FAF76DFDFDF763F910BDB0200020A8
:10D6D00010B50446A0880949088008222146163161
:10D6E0000748FAF75DFD0020064908700648C08922
:10D6F000002801D1FDF74CF910BD0000AE2000203C
:10D70000B0200020AC200020902C00208A88828647
:10D710007047000010B508480078012802D00228A0
:10D7200007D102E0FBF75EF804E00320024908702D
:10D7300000E000BF00BF10BDEC2100200B480078C6
:10D74000002802D003280DD108E004200849086011
:10D750000120084908600549087004E002200349D7
:10D76000087000E000BF00BF70470000EC210020FF
:10D770000025004000200040FEB504460D46602014
:10D78000005D2E21484307192E4608365F20005DB4
:10D790000C214843B91D401802906888002816D112
:10D7A00000BF0FE006214143B21C891849881F4A77
:10D7B000914206D106214143B21C525A02994A8134
:10D7C00003E0401C31888142ECD800BF00BF00203C
:10D7D00001905F20005D401C3979884202D1012010
:10D7E000019016E05F20005D401CC1B25F20015532
:10D7F00001A92046FDF75AFA00900098002807D0AA
:10D8000000216120015520460099FDF7A1FCFEBDD5
:10D8100000BF68460079002806D001212046FDF7A8
:10D8200045FC204600F0AAF800BFF0E702290000FE
:10D8300070B505460020C0430A49088000200A4907
:10D8400008700A480068FBF7F1FA0446002C07D07C
:10D8500007488069002803D0054881692046884729
:10D8600070BD0000AE200020AC200020B8200020B9
:10D87000902C00200022D2438286704770B5064665
:10D880000D462C460C3421881448C08B81420FD1A0
:10D8900000BF1248017E124801711048C08A104929
:10D8A000488000BFA388A21D304600F069FA14E04A
:10D8B00021880A48408D81420FD100BF074822309D
:10D8C0008178074801710548408C0549488000BFB0
:10D8D000A288A11D304600F077F970BD20300020ED
:10D8E0009030002010B501F0B7FF10BD10B58A1DB3
:10D8F0001388448CA34200D000BF10BDF8B5044685
:10D900000D46688800281DD16020005D2E21484307
:10D9100007192E46083671883980B0887880F288D9
:10D920007A853189B9852046FCF7E2FD00900098A0
:10D93000002806D000216120015520460099FDF7FE
:10D9400007FC06E000212046FDF7B0FB204600F072
:10D9500015F8F8BD10B58A1C1378022B0DD18B7900
:10D96000042B0AD08B79062B07D08B79052B04D09A
:10D970005388448CA34200D000BF10BD70B504464C
:10D980001C480068401C1B490860084600681A498A
:10D990000968884228D200215F2001556020005D7F
:10D9A000401CC1B260200155005D2E21484305197D
:10D9B0006020005DC000114940180188298040881E
:10D9C0006880002028715C21085B2A46012190DFD5
:10D9D0000646002E07D00021612001553146204621
:10D9E000FDF7B6FB70BD02E000216120015500BFCC
:10D9F000F8E70000D8210020D4210020D0300020FA
:10DA00007047000010B509480078012807D00228A7
:10DA100004D0032806D1FAF7E5FE04E000BFFAF7C8
:10DA2000B0FE00E000BF00BF10BD0000EC210020F0
:10DA300010B5FAF7D7FE10BD10B504462300FAF76B
:10DA400083FE0504070D0A101300FFF763FE0CE0C8
:10DA5000FFF774FE09E0FFF7D5FF06E000F008F8D5
:10DA600003E0FFF7E5FF00E000BF00BF10BD0000CE
:10DA700010B503480078012801D1FAF787FE10BDE0
:10DA8000EC21002070B50546AC1D20881249C989DB
:10DA9000884220D1208B02281DD100BF00BFA17E6B
:10DAA000E27E120211430846C107C90F002902D0C5
:10DAB000FCF76EFF0FE009480068FBF7B7F9064670
:10DAC000002E07D004488069002803D002488169ED
:10DAD0003046884700BF70BD902C0020B820002041
